{
  "transactions": [
    {
      "hash": "0x630c08828bb72da43b6ad5b114b68925cec02cd7dafe64a3165550db4979556b",
      "transactionType": "CALL",
      "contractName": null,
      "contractAddress": "0x8d47f346e4439e3a03fa574a9e8f40acf0571ee4",
      "function": "updatePrice(uint80,int256,uint256,uint256,uint80)",
      "arguments": [
        "2",
        "2000000",
        "1764442370",
        "1764442430",
        "2"
      ],
      "transaction": {
        "from": "0xb6937d744691065a9c4c50e15667ef1c46d9996b",
        "to": "0x8d47f346e4439e3a03fa574a9e8f40acf0571ee4",
        "gas": "0x11bb1",
        "value": "0x0",
        "input": "0xd0a703d3000000000000000000000000000000000000000000000000000000000000000200000000000000000000000000000000000000000000000000000000001e848000000000000000000000000000000000000000000000000000000000692b410200000000000000000000000000000000000000000000000000000000692b413e0000000000000000000000000000000000000000000000000000000000000002",
        "nonce": "0x2",
        "chainId": "0x14a34"
      },
      "additionalContracts": [],
      "isFixedGasLimit": false
    }
  ],
  "receipts": [
    {
      "status": "0x1",
      "cumulativeGasUsed": "0x4f57c",
      "logs": [
        {
          "address": "0x8d47f346e4439e3a03fa574a9e8f40acf0571ee4",
          "topics": [
            "0x7accba047e62b539c1365aad1945cb66047c67e89d1296ed4188e5544126111d"
          ],
          "data": "0x00000000000000000000000000000000000000000000000000000000000f424000000000000000000000000000000000000000000000000000000000001e8480000000000000000000000000000000000000000000000000000000000000000200000000000000000000000000000000000000000000000000000000692b413e",
          "blockHash": "0xc6a75fb5cf03ace1500ed855f2c3b9203bf2990cf9405dd1161a427550924e45",
          "blockNumber": "0x20bf137",
          "blockTimestamp": "0x692b414e",
          "transactionHash": "0x630c08828bb72da43b6ad5b114b68925cec02cd7dafe64a3165550db4979556b",
          "transactionIndex": "0x6",
          "logIndex": "0x4",
          "removed": false
        }
      ],
      "logsBloom": "0x00000002000000000000000000000000000000000000000000000000000000000000000000000000000000000000000000000002000000000001000000000000000000000000000000000000000000000000000000000000000000000000000000000000000000000000000000000000000000000000000000000000000000000000000000000000000000000000000000000000000000000000000000000400000000000000008000000000000000000010000000000000000000000000000000000000000000000000000000000000000000000000000000000000000000000000000000000000000000000000000000000000000000000000000000000000",
      "type": "0x2",
      "transactionHash": "0x630c08828bb72da43b6ad5b114b68925cec02cd7dafe64a3165550db4979556b",
      "transactionIndex": "0x6",
      "blockHash": "0xc6a75fb5cf03ace1500ed855f2c3b9203bf2990cf9405dd1161a427550924e45",
      "blockNumber": "0x20bf137",
      "gasUsed": "0xc1fb",
      "effectiveGasPrice": "0xac1e8",
      "blobGasUsed": "0x79e0",
      "from": "0xb6937d744691065a9c4c50e15667ef1c46d9996b",
      "to": "0x8d47f346e4439e3a03fa574a9e8f40acf0571ee4",
      "contractAddress": null,
      "daFootprintGasScalar": "0x138",
      "l1BaseFeeScalar": "0x44d",
      "l1BlobBaseFee": "0x1",
      "l1BlobBaseFeeScalar": "0xa118b",
      "l1Fee": "0x50",
      "l1GasPrice": "0x8",
      "l1GasUsed": "0x640"
    }
  ],
  "libraries": [],
  "pending": [],
  "returns": {},
  "timestamp": 1764442444,
  "chain": 84532,
  "commit": "703a64b"
}