{
  "transactions": [
    {
      "hash": "0xdd9a5c91b3afb08ed9dffc9fe5a5df5ad139106c8347500cfdf6b53527065fc4",
      "transactionType": "CALL",
      "contractName": null,
      "contractAddress": "0x8d47f346e4439e3a03fa574a9e8f40acf0571ee4",
      "function": "updatePrice(uint80,int256,uint256,uint256,uint80)",
      "arguments": [
        "4",
        "4000000",
        "1764442736",
        "1764442796",
        "4"
      ],
      "transaction": {
        "from": "0xb6937d744691065a9c4c50e15667ef1c46d9996b",
        "to": "0x8d47f346e4439e3a03fa574a9e8f40acf0571ee4",
        "gas": "0x10bdd",
        "value": "0x0",
        "input": "0xd0a703d3000000000000000000000000000000000000000000000000000000000000000400000000000000000000000000000000000000000000000000000000003d090000000000000000000000000000000000000000000000000000000000692b427000000000000000000000000000000000000000000000000000000000692b42ac0000000000000000000000000000000000000000000000000000000000000004",
        "nonce": "0x4",
        "chainId": "0x14a34"
      },
      "additionalContracts": [],
      "isFixedGasLimit": false
    }
  ],
  "receipts": [
    {
      "status": "0x1",
      "cumulativeGasUsed": "0xf7716c",
      "logs": [
        {
          "address": "0x8d47f346e4439e3a03fa574a9e8f40acf0571ee4",
          "topics": [
            "0x7accba047e62b539c1365aad1945cb66047c67e89d1296ed4188e5544126111d"
          ],
          "data": "0x00000000000000000000000000000000000000000000000000000000002dc6c000000000000000000000000000000000000000000000000000000000003d0900000000000000000000000000000000000000000000000000000000000000000400000000000000000000000000000000000000000000000000000000692b42ac",
          "blockHash": "0x5ae8fbc50ac37bb189f48edf14af98d5de26ac7ab36fccd282765b06a020e3a3",
          "blockNumber": "0x20bf1ef",
          "blockTimestamp": "0x692b42be",
          "transactionHash": "0xdd9a5c91b3afb08ed9dffc9fe5a5df5ad139106c8347500cfdf6b53527065fc4",
          "transactionIndex": "0x4a",
          "logIndex": "0xc3",
          "removed": false
        }
      ],
      "logsBloom": "0x00000002000000000000000000000000000000000000000000000000000000000000000000000000000000000000000000000002000000000001000000000000000000000000000000000000000000000000000000000000000000000000000000000000000000000000000000000000000000000000000000000000000000000000000000000000000000000000000000000000000000000000000000000400000000000000008000000000000000000010000000000000000000000000000000000000000000000000000000000000000000000000000000000000000000000000000000000000000000000000000000000000000000000000000000000000",
      "type": "0x2",
      "transactionHash": "0xdd9a5c91b3afb08ed9dffc9fe5a5df5ad139106c8347500cfdf6b53527065fc4",
      "transactionIndex": "0x4a",
      "blockHash": "0x5ae8fbc50ac37bb189f48edf14af98d5de26ac7ab36fccd282765b06a020e3a3",
      "blockNumber": "0x20bf1ef",
      "gasUsed": "0xc1ef",
      "effectiveGasPrice": "0x3483d",
      "blobGasUsed": "0x79e0",
      "from": "0xb6937d744691065a9c4c50e15667ef1c46d9996b",
      "to": "0x8d47f346e4439e3a03fa574a9e8f40acf0571ee4",
      "contractAddress": null,
      "daFootprintGasScalar": "0x138",
      "l1BaseFeeScalar": "0x44d",
      "l1BlobBaseFee": "0x1",
      "l1BlobBaseFeeScalar": "0xa118b",
      "l1Fee": "0x192",
      "l1GasPrice": "0x8",
      "l1GasUsed": "0x640"
    }
  ],
  "libraries": [],
  "pending": [],
  "returns": {},
  "timestamp": 1764442813,
  "chain": 84532,
  "commit": "703a64b"
}