{
  "transactions": [
    {
      "hash": "0x124125d9a0d8b0511000bbad6c392fe49469be34ca8a43b4bb12116dc01804ea",
      "transactionType": "CALL",
      "contractName": null,
      "contractAddress": "0x8d47f346e4439e3a03fa574a9e8f40acf0571ee4",
      "function": "updatePrice(uint80,int256,uint256,uint256,uint80)",
      "arguments": [
        "3",
        "3000000",
        "1764442396",
        "1764442456",
        "3"
      ],
      "transaction": {
        "from": "0xb6937d744691065a9c4c50e15667ef1c46d9996b",
        "to": "0x8d47f346e4439e3a03fa574a9e8f40acf0571ee4",
        "gas": "0x11bb1",
        "value": "0x0",
        "input": "0xd0a703d3000000000000000000000000000000000000000000000000000000000000000300000000000000000000000000000000000000000000000000000000002dc6c000000000000000000000000000000000000000000000000000000000692b411c00000000000000000000000000000000000000000000000000000000692b41580000000000000000000000000000000000000000000000000000000000000003",
        "nonce": "0x3",
        "chainId": "0x14a34"
      },
      "additionalContracts": [],
      "isFixedGasLimit": false
    }
  ],
  "receipts": [
    {
      "status": "0x1",
      "cumulativeGasUsed": "0x66de36",
      "logs": [
        {
          "address": "0x8d47f346e4439e3a03fa574a9e8f40acf0571ee4",
          "topics": [
            "0x7accba047e62b539c1365aad1945cb66047c67e89d1296ed4188e5544126111d"
          ],
          "data": "0x00000000000000000000000000000000000000000000000000000000001e848000000000000000000000000000000000000000000000000000000000002dc6c0000000000000000000000000000000000000000000000000000000000000000300000000000000000000000000000000000000000000000000000000692b4158",
          "blockHash": "0x81c705a56515ac13786c115b4261a130cab2629793f9f73c6c84fdd7f691e6cf",
          "blockNumber": "0x20bf144",
          "blockTimestamp": "0x692b4168",
          "transactionHash": "0x124125d9a0d8b0511000bbad6c392fe49469be34ca8a43b4bb12116dc01804ea",
          "transactionIndex": "0x1b",
          "logIndex": "0xba",
          "removed": false
        }
      ],
      "logsBloom": "0x00000002000000000000000000000000000000000000000000000000000000000000000000000000000000000000000000000002000000000001000000000000000000000000000000000000000000000000000000000000000000000000000000000000000000000000000000000000000000000000000000000000000000000000000000000000000000000000000000000000000000000000000000000400000000000000008000000000000000000010000000000000000000000000000000000000000000000000000000000000000000000000000000000000000000000000000000000000000000000000000000000000000000000000000000000000",
      "type": "0x2",
      "transactionHash": "0x124125d9a0d8b0511000bbad6c392fe49469be34ca8a43b4bb12116dc01804ea",
      "transactionIndex": "0x1b",
      "blockHash": "0x81c705a56515ac13786c115b4261a130cab2629793f9f73c6c84fdd7f691e6cf",
      "blockNumber": "0x20bf144",
      "gasUsed": "0xc1fb",
      "effectiveGasPrice": "0x1214e8",
      "blobGasUsed": "0x79e0",
      "from": "0xb6937d744691065a9c4c50e15667ef1c46d9996b",
      "to": "0x8d47f346e4439e3a03fa574a9e8f40acf0571ee4",
      "contractAddress": null,
      "daFootprintGasScalar": "0x138",
      "l1BaseFeeScalar": "0x44d",
      "l1BlobBaseFee": "0x1",
      "l1BlobBaseFeeScalar": "0xa118b",
      "l1Fee": "0x50",
      "l1GasPrice": "0x8",
      "l1GasUsed": "0x640"
    }
  ],
  "libraries": [],
  "pending": [],
  "returns": {},
  "timestamp": 1764442471,
  "chain": 84532,
  "commit": "703a64b"
}