{
  "transactions": [
    {
      "hash": "0x3b223dcbd999163391930153efa678805db65128253ecdbc8f1e05f32c92ced8",
      "transactionType": "CALL",
      "contractName": null,
      "contractAddress": "0x8d47f346e4439e3a03fa574a9e8f40acf0571ee4",
      "function": "updatePrice(uint80,int256,uint256,uint256,uint80)",
      "arguments": [
        "1",
        "1000000",
        "1764442322",
        "1764442382",
        "1"
      ],
      "transaction": {
        "from": "0xb6937d744691065a9c4c50e15667ef1c46d9996b",
        "to": "0x8d47f346e4439e3a03fa574a9e8f40acf0571ee4",
        "gas": "0x2a274",
        "value": "0x0",
        "input": "0xd0a703d3000000000000000000000000000000000000000000000000000000000000000100000000000000000000000000000000000000000000000000000000000f424000000000000000000000000000000000000000000000000000000000692b40d200000000000000000000000000000000000000000000000000000000692b410e0000000000000000000000000000000000000000000000000000000000000001",
        "nonce": "0x1",
        "chainId": "0x14a34"
      },
      "additionalContracts": [],
      "isFixedGasLimit": false
    }
  ],
  "receipts": [
    {
      "status": "0x1",
      "cumulativeGasUsed": "0x10fc4d0",
      "logs": [
        {
          "address": "0x8d47f346e4439e3a03fa574a9e8f40acf0571ee4",
          "topics": [
            "0x7accba047e62b539c1365aad1945cb66047c67e89d1296ed4188e5544126111d"
          ],
          "data": "0x000000000000000000000000000000000000000000000000000000000000000000000000000000000000000000000000000000000000000000000000000f4240000000000000000000000000000000000000000000000000000000000000000100000000000000000000000000000000000000000000000000000000692b410e",
          "blockHash": "0x2d4646aaf8a74f911fe1ad8da2a9871bb70622a5811edf25952f2dc713599b9b",
          "blockNumber": "0x20bf11f",
          "blockTimestamp": "0x692b411e",
          "transactionHash": "0x3b223dcbd999163391930153efa678805db65128253ecdbc8f1e05f32c92ced8",
          "transactionIndex": "0x25",
          "logIndex": "0xc5",
          "removed": false
        }
      ],
      "logsBloom": "0x00000002000000000000000000000000000000000000000000000000000000000000000000000000000000000000000000000002000000000001000000000000000000000000000000000000000000000000000000000000000000000000000000000000000000000000000000000000000000000000000000000000000000000000000000000000000000000000000000000000000000000000000000000400000000000000008000000000000000000010000000000000000000000000000000000000000000000000000000000000000000000000000000000000000000000000000000000000000000000000000000000000000000000000000000000000",
      "type": "0x2",
      "transactionHash": "0x3b223dcbd999163391930153efa678805db65128253ecdbc8f1e05f32c92ced8",
      "transactionIndex": "0x25",
      "blockHash": "0x2d4646aaf8a74f911fe1ad8da2a9871bb70622a5811edf25952f2dc713599b9b",
      "blockNumber": "0x20bf11f",
      "gasUsed": "0x1cd2b",
      "effectiveGasPrice": "0xc2fe4",
      "blobGasUsed": "0x79e0",
      "from": "0xb6937d744691065a9c4c50e15667ef1c46d9996b",
      "to": "0x8d47f346e4439e3a03fa574a9e8f40acf0571ee4",
      "contractAddress": null,
      "daFootprintGasScalar": "0x138",
      "l1BaseFeeScalar": "0x44d",
      "l1BlobBaseFee": "0x1",
      "l1BlobBaseFeeScalar": "0xa118b",
      "l1Fee": "0x50",
      "l1GasPrice": "0x8",
      "l1GasUsed": "0x640"
    }
  ],
  "libraries": [],
  "pending": [],
  "returns": {},
  "timestamp": 1764442397,
  "chain": 84532,
  "commit": "703a64b"
}